{
    "contractName": "SimpleCoin",
    "abi": [
        {
            "inputs": [
                {
                    "internalType": "uint256",
                    "name": "_initialSupply",
                    "type": "uint256"
                }
            ],
            "stateMutability": "nonpayable",
            "type": "constructor"
        },
        {
            "anonymous": false,
            "inputs": [
                {
                    "indexed": true,
                    "internalType": "address",
                    "name": "from",
                    "type": "address"
                },
                {
                    "indexed": true,
                    "internalType": "address",
                    "name": "to",
                    "type": "address"
                },
                {
                    "indexed": false,
                    "internalType": "uint256",
                    "name": "value",
                    "type": "uint256"
                }
            ],
            "name": "Transfer",
            "type": "event"
        },
        {
            "inputs": [
                {
                    "internalType": "address",
                    "name": "",
                    "type": "address"
                }
            ],
            "name": "coinBalance",
            "outputs": [
                {
                    "internalType": "uint256",
                    "name": "",
                    "type": "uint256"
                }
            ],
            "stateMutability": "view",
            "type": "function"
        },
        {
            "inputs": [
                {
                    "internalType": "address",
                    "name": "_to",
                    "type": "address"
                },
                {
                    "internalType": "uint256",
                    "name": "_amount",
                    "type": "uint256"
                }
            ],
            "name": "transfer",
            "outputs": [],
            "stateMutability": "nonpayable",
            "type": "function"
        }
    ],
    "bytecode": "608060405234801561001057600080fd5b506040516101d53803806101d58339818101604052602081101561003357600080fd5b505133600090815260208190526040902055610181806100546000396000f3fe608060405234801561001057600080fd5b50600436106100365760003560e01c8063a9059cbb1461003b578063fabde80c14610069575b600080fd5b6100676004803603604081101561005157600080fd5b506001600160a01b0381351690602001356100a1565b005b61008f6004803603602081101561007f57600080fd5b50356001600160a01b0316610139565b60408051918252519081900360200190f35b3360009081526020819052604090205481106100bc57600080fd5b6001600160a01b03821660009081526020819052604090205481810110156100e357600080fd5b6001600160a01b038216600081815260208181526040918290208054850190558151848152915133927fddf252ad1be2c89b69c2b068fc378daa952ba7f163c4a11628f55a4df523b3ef92908290030190a35050565b6000602081905290815260409020548156fea2646970667358221220339b80bba5626901c0991cdc6839b0b8f0eff0262cb7335bd80b2994169d737d64736f6c63430007000033",
    "sourcePath": "c:/Users/JBarr/OneDrive/Documents/FinTech/blockchain/crip_thoo/blockchain_tools/buildingEthDapps/simpleCoin.sol",
    "compiler": {
        "name": "solc",
        "version": "0.7.0+commit.9e61f92b"
    },
    "functionHashes": {
        "coinBalance(address)": "fabde80c",
        "transfer(address,uint256)": "a9059cbb"
    },
    "gasEstimates": {
        "creation": {
            "codeDepositCost": "77000",
            "executionCost": "infinite",
            "totalCost": "infinite"
        },
        "external": {
            "coinBalance(address)": "1127",
            "transfer(address,uint256)": "24740"
        }
    }
}